:020000040800F2
:10000000C82900207D0200085B2C00087725000825
:10001000592C000843080008D948000800000000D7
:100020000000000000000000000000003B2E00085F
:10003000C108000800000000D72D0008472E000866
:10004000970200089702000897020008970200082C
:10005000970200089702000897020008970200081C
:10006000970200089702000897020008970200080C
:1000700097020008970200089702000897020008FC
:10008000970200089702000897020008000000008D
:1000900000000000000000000000000097020008BF
:1000A00097020008F92E000897020008970200083E
:1000B00097020008970200089702000897020008BC
:1000C00097020008970200089702000897020008AC
:1000D000970200089702000897020008000000003D
:1000E000970200089702000897020008000000002D
:1000F000000000000000000000000000970200085F
:10010000000000009702000897020008970200080C
:1001100000000000000000000000000000000000DF
:10012000970200089702000897020008970200084B
:10013000970200080000000000000000000000001E
:100140000000000000000000000000005D2C00081E
:10015000970200089702000897020008970200081B
:10016000970200089702000800000000000000004D
:10017000000000000000000000000000000000007F
:1001800000000000970200080000000000000000CE
:100190009702000800F002F800F061F80AA090E869
:1001A000000C82448344AAF10107DA4501D100F032
:1001B00056F8AFF2090EBAE80F0013F0010F18BF9E
:1001C000FB1A43F001031847608E0000808E000088
:1001D0000A444FF0000C10F8013B13F0070408BF6D
:1001E00010F8014B1D1108BF10F8015B641E05D00B
:1001F00010F8016B641E01F8016BF9D113F0080FC0
:100200001EBF10F8014BAD1C0C1B09D16D1E58BF51
:1002100001F801CBFAD505E014F8016B01F8016B88
:100220006D1EF9D59142D6D37047000000230024FB
:1002300000250026103A28BF78C1FBD8520728BFF6
:1002400030C148BF0B607047642900F0ED8000208A
:1002500070471FB504F004FC1FBD10B510BD00F0C1
:10026000B6FA1146FFF7F5FF04F04EFB00F0D4FAA2
:1002700003B4FFF7F2FF03BC00F0DCFA0948804743
:1002800009480047FEE7FEE7FEE7FEE7FEE7FEE778
:10029000FEE7FEE7FEE7FEE704480549054A064B90
:1002A00070470000E92E000895010008C8150020DD
:1002B000C8290020C8250020C825002053EA020CC8
:1002C00000F069802DE9F04B4FF00006002B1FBFB6
:1002D000B3FA83F503FA05F424FA05F65E4012BF7B
:1002E0001643B2FA82F502FA05F4C5F120051EBFE5
:1002F00022FA05FC44EA0C04203556EA044C4FEA85
:10030000144418BF641C4FF000084FF000099042DD
:1003100071EB030C39D3002919BFB1FA81F701FA47
:1003200007F6B0FA80F700FA07F6C7F120071EBFFC
:1003300020FA07FC46EA0C062037B6FBF4FCA7EBD4
:100340000507103F07F01F0BCBF120060CFA0BFB43
:100350002CFA06F644BFB3460026202FA4BF5E4603
:100360004FF0000B5BEA060C08BF4FF0010B19EBD6
:100370000B09ABFB027C48EB0608C01B06FB02CC5A
:100380000BFB03CC71EB0C01C1E70B460246414667
:100390004846BDE8F08B13B54FF000004FF0000168
:1003A000AFF30080BDE81C40704700000FB41CB5DF
:1003B000084B06AA7B4469460090059800F0EFF9C7
:1003C00004460020694600F0FDF920461CBC5DF89B
:1003D00014FB00000D04000070B504468569006838
:1003E000C10601D5302600E02026C00707D070BD29
:1003F000D4E9012130469047206A401C20626D1EDE
:10040000F6D570BD70B5044685690078C00707D180
:1004100070BDD4E9012120209047206A401C206251
:100420006D1EF6D570BD00002DE9F0410646002492
:1004300010687529314616A510D0AFF3008000284A
:1004400002DA404213A507E031688A0701D512A5F8
:1004500002E0490704D511A5012401E0AFF30080B3
:1004600000210A2206F1240709E0B0FBF2FCB0FBF0
:10047000F2F302FB1C00303078541846491C002867
:10048000F3D123462A463046BDE8F04100F028B9B2
:10049000000000002D0000002B00000020000000E4
:1004A0002DE9F05F894604464FF0000ADFF874B189
:1004B000FB44C0F820A02046E1688847002874D09B
:1004C000252806D0D4E901219047206A401C2062EB
:1004D000F1E700265F462046E16888472028054668
:1004E00007DB312D05D2781910F8200C08B106432E
:1004F000F1E7B00701D526F00406C4F81CA00027D8
:10050000C4F818A02A2D09D0284604F0F6F938B30B
:1005100004EB8708303DC8F8185019E059F8041B5F
:10052000204604EB87029161E1688847012F054668
:1005300018D1E069002820DA26F020061DE0D8F85E
:10054000180000EB800005EB40003038C8F81800B8
:100550002046E1688847054604F0CFF90028EED12F
:10056000012F0AD02E2D08D12046E16888477F1C34
:100570000546022F46F02006C4DBA069002803DAF6
:10058000404246F00106A061F00701D026F01006B7
:100590006C2D0BD0682D09D04C2D39D06A2D35D05B
:1005A000742D35D07A2D33D016E038E0E1682F462F
:1005B00020468847B842054609D16C2F26D04FF413
:1005C0008060E168064320468847054604E06C2FBA
:1005D0001AD04FF4807006430DB3A5F141001928DD
:1005E00002D8203546F400664A4629462046266051
:1005F0004E46FFF729FE80B101280BD0F61D26F0EC
:10060000070000F1080956E74020E4E78020D8E71A
:100610000020D6E706F104094DE7284652E7206A94
:10062000BDE8F09F628B000010B5203AC0F00B804F
:10063000B1E81850203AA0E81850B1E81850A0E8E6
:100640001850BFF4F5AF5FEA027C24BFB1E8185040
:10065000A0E8185044BF18C918C0BDE810405FEAB0
:10066000827C24BF51F8043B40F8043B08BF70472C
:10067000D20728BF31F8023B48BF11F8012B28BF31
:1006800020F8023B48BF00F8012B70474FF00002F2
:1006900000B5134694469646203922BFA0E80C5078
:1006A000A0E80C50B1F12001BFF4F7AF090728BF53
:1006B000A0E80C5048BF0CC05DF804EB890028BFCF
:1006C00040F8042B08BF704748BF20F8022B11F0F8
:1006D000804F18BF00F8012B704770477047704774
:1006E0002DE9F0470D4699469246044600F124084C
:1006F0000168880604D5E06921F01001216000E05E
:100700000120A84201DD471B00E00027A1697A19FA
:1007100002EB0900081AA0612078C00602D4204626
:10072000FFF75AFE002608E0D4E901211AF8060076
:100730009047206A401C761C20624E45F4DB2078EE
:10074000C0060AD52046FFF747FE06E0D4E901219E
:1007500030209047206A401C2062381EA7F1010714
:10076000F4DC07E0D4E9012118F805009047206A7D
:10077000401C2062281EA5F10105F3DC2046FFF78E
:1007800041FE2078000602D50220BDE8F087012056
:10079000FBE7000001694A1C02610878704700B558
:1007A0008FB0CDE901310021059105497944CDE9AA
:1007B000031011466846FFF773FE0FB000BD00003E
:1007C000E5FFFFFF0A6802F8010B0A6070477546F3
:1007D00000F02CF8AE4605006946534620F00700AD
:1007E000854618B020B5FFF757FDBDE820404FF013
:1007F00000064FF000074FF000084FF0000B21F00B
:100800000701AC46ACE8C009ACE8C009ACE8C009D7
:10081000ACE8C0098D46704710B50446AFF30080C0
:100820002046BDE81040FFF723BD00000048704798
:100830006815002001491820ABBEFEE72600020023
:100840007047FEE7002070470020704710B5002277
:100850000449054802F061FD0449034802F054FDD3
:10086000002010BD580B0020A002002070070020BF
:1008700010B50F4A0968106808440E491060B0F5B9
:100880007A7F0FD28B1EC35C0D2B0BD04B1EC35C2B
:100890000A2B07D00144084802F036FD064802F052
:1008A00018FD03E00123536000220A54002010BD0C
:1008B0006800002070070020A00200200020704780
:1008C000704772B6FEE7000070B5044600F008F904
:1008D0000546601C02D004480078044400F000F98A
:1008E000401BA042FAD370BD840000202DE9F84FD0
:1008F000DFF8B8A1002201240AF1040B03254FF010
:100900000F090BF1040E00BF0B6804FA02F6334026
:10091000B34273D10F7907F00307012F01D0022FE3
:1009200016D187684FEA420805FA08FC27EA0C0747
:10093000D1F80CC00CFA08FC4CEA070CC0F808C04F
:100940004768B7430E79C6F3001696403E434660AB
:100950000E79F643B6070DD0C768560005FA06FCB7
:1009600027EA0C07D1F808C00CFA06FC4CEA070C81
:10097000C0F80CC00E7906F00306022E10D1D6087E
:1009800000EB8608D8F8206057074FEAD76C09FAC1
:100990000CF7BE430F6907FA0CF73743C8F820700D
:1009A00006684FEA420C05FA0CF7BE430F7907F0D0
:1009B000030707FA0CF7374307604E6816F4403F09
:1009C0006DD03B4E376847F480473760366822F079
:1009D000030706F480460096364E07EB060CDCF85B
:1009E000086897073F0F09FA07F826EA0806DFF8B4
:1009F000C880404503D14FF000081EE04FE0DFF80B
:100A0000BC80404502D14FF0010816E0DFF8B0800D
:100A1000404502D14FF002080FE0DFF8A8804045C2
:100A200002D14FF0030808E0DFF89C80404502D176
:100A30004FF0040801E04FF0070808FA07F848EA09
:100A40000608CCF80888DAF800605746D1F804C0E8
:100A50009E435FEACC3C00D51E433E60DBF800605D
:100A60005F46D1F804C09E435FEA8C3C00D51E432C
:100A70003E60DEF800607746D1F804C09E435FEA2E
:100A8000CC2C00D51E433E60084F0C373E68D1F891
:100A900004C09E435FEA8C2C00D51E433E60521C6E
:100AA000102AFFF431AFBDE8F88F0000003C014090
:100AB000443802400030014000000240000402407F
:100AC00000080240000C024000100240006908408B
:100AD00000D0012070470AB1816170470904FBE72B
:100AE0000148806870470000840000200248816847
:100AF0000278114481607047840000200B4810B5D3
:100B0000016841F400710160016841F48061016095
:100B1000016841F480710160032000F06FF80F203C
:100B200000F006F800F024F8002010BD003C024060
:100B300070B50D4D04464FF47A712878B1FBF0F092
:100B40000A490968B1FBF0F001F0E5F948B9102C49
:100B500007D200222146501E00F030F800206C60C1
:100B600070BD012070BD00008400002090000020B6
:100B70000A4808B5016841F480410160006800F44A
:100B8000804000900548001F016841F080510160DD
:100B9000006800F08050009008BD0000443802401A
:100BA000002809DB00F01F0201219140400980006C
:100BB00000F1E020C0F8001170470000F0B40E4BC7
:100BC0001B680C46C3F30223C3F10705042D00D9AB
:100BD0000425191D072901D2002300E0DB1E012690
:100BE00006FA05F1491E214099409E40761E1640A6
:100BF0003143F0BC03F071BE0CED00E0064900F09B
:100C0000070208684FF6FF03184040EA0220034A33
:100C100010430860704700000CED00E00000FA058A
:100C200070470068416200207047F0B50368586A59
:100C300039B19C6A4FF4827600EB144400204D1EBB
:100C40000AE040EA024098620FE006EB8007DF59B5
:100C5000401C04EB1744C0B2A842F6D344EA024059
:100C60004FF4807202EB810158500020F0BDD0F8A3
:100C7000040402F0D7BDC1EBC10200EB8202D0F840
:100C80000404926C02F044BDC1EBC10200EB82028D
:100C9000D0F80404D2F8082202F08EBDD0F8040483
:100CA00002F0C2BD70B504460B0601F00F00C0EBA8
:100CB000C00104EB81014FF001024FF0000503D5A4
:100CC00081F83D203C3103E081F8FD5101F5FE71D2
:100CD000087094F8BC03012808D084F8BC2320686D
:100CE00003F060F984F8BC53002070BD022070BD91
:100CF00070B5044601F00F006268904201D90120EE
:100D000070BD0B0601F00F01C1EBC10104EB8101C5
:100D10004FF001024FF0000503D581F83D203C3132
:100D200003E081F8FD5101F5FE718D70087094F8B3
:100D3000BC03012808D084F8BC23206803F02CFBF6
:100D400084F8BC53002070BD022070BD01F00F017B
:100D5000C1EBC10100EB8100D0F8140270472DE90E
:100D6000F04104460F0601F00F00C0EBC00104EB98
:100D700081014FF001064FF0000503D581F83D6079
:100D80003C3103E081F8FD5101F5FE7108708A6085
:100D9000CB704A7802B1C880022B00D10D7194F853
:100DA000BC03012809D084F8BC63206803F052F822
:100DB000284684F8BC53BDE8F0810220FBE770B5FB
:100DC0000C4601F00F05C5EBC50100EB8101C1F830
:100DD0001032C1F808220023C1F8143281F8FD3125
:100DE00081F8FC51036901F5FE71012B00D10A6104
:100DF0002207027C006803D003F026FB002070BDB0
:100E000003F012FAFAE770B504460D4601F00F0040
:100E10006168884201D9012070BD29064FF00006A3
:100E20004FF0010207D5C0EBC00104EB810181F84E
:100E30003D203C3107E0C5EBC50104EB810181F8A1
:100E4000FD6101F5FE718A70087094F8BC030128F9
:100E500007D084F8BC23206803F0CAFA280702D020
:100E600007E0022070BD217C04F57172206803F058
:100E700067FA84F8BC63002070BD70B50C4601F0C1
:100E80000F05C5EBC50100EB81010B658A640023EA
:100E90004B65012381F83D3001F83C5F0369012B6C
:100EA00000D10A612207027C006803D003F0CCFA6B
:100EB000002070BD03F0B8F9FAE700002DE9FC5FEF
:100EC00005680446284603F0F0FB00287ED1206820
:100ED00003F017FC002879D0206803F012FC80078B
:100EE00004D52168486900F002004861206803F0D9
:100EF00008FCC10604F57170009034D52068816942
:100F000021F0100181612F6A07F00F00C0EBC000D3
:100F100004EB8006C7F3434006F5FE76022802D0B4
:100F2000062811D01AE047F6F070074216D0C7F332
:100F30000A1217462846F16803F0E7FBF0683844C8
:100F4000F060B069384408E008222846009903F0B0
:100F5000DCFBB069C7F30A110844B06120688169FD
:100F600041F010018161206803F0CBFB00034FF0DA
:100F7000010A4FF0080B5BD50026206803F0A0FBA8
:100F80000746DFF8689351E0F8074DD0F1B22068CA
:100F900003F0AFFB8046C00707D005EB4611C1F850
:100FA00008AB3146204601F05FFE5FEA087022D5AB
:100FB00005EB4611C1F808BB2068016C00EB461038
:100FC0000191D0F8082B494507D900E08BE11104C5
:100FD00003D54FF40041C0F8081B204600F073FA17
:100FE0000198484507D92069012804D120680121CA
:100FF000009A03F0A5F95FEAC86004D505EB461135
:101000001020C1F8080B5FEA886004D505EB461193
:101010002020C1F8080B5FEA884005D505EB461093
:101020004FF40051C0F8081B7F08761C002FABD18D
:10103000206803F066FB40034FF000095CD5206890
:1010400003F037FB0746002654E0F80750D0F1B212
:10105000206803F03CFB8046C00723D006F00F0257
:101060000AFA02F0D5F834288243C5F8342805EB93
:101070004610C0F808A9206901280FD1C6EBC600A8
:1010800004EB8000D0E911211144816436B9206D50
:1010900020B920680121009A03F052F9F1B22046EC
:1010A000FFF7E9FD5FEA087003D505EB4611C1F8CB
:1010B00008B95FEAC86004D505EB46111020C1F8F5
:1010C00008095FEA486004D505EB46114020C1F8E5
:1010D00008095FEA887004D505EB46110220C1F8C3
:1010E00008095FEA086003D53146204601F022FE78
:1010F0007F08761C002FA8D1206803F002FB00288F
:1011000011DAD5F8040820F00100C5F8040894F8B5
:10111000F403012829D0204600F0B9F9206841697C
:1011200001F000414161206803F0EBFA00050BD5A6
:10113000D5F80808C00702D0204600F0EDF9206875
:10114000416901F400614161206803F0DAFAC004EA
:1011500068D5D5F8040820F00100C5F8040810216E
:10116000206803F07FFA002127E084F8F49300213F
:101170002046FFF755FDD1E705EB41104FF67F32D2
:10118000C0F80829D0F8003923F40013C0F800395A
:10119000D0F8003943F00063C0F80039C0F8082BDC
:1011A000D0F8002B22F40012C0F8002BD0F8002B4E
:1011B00042F00062C0F8002B491C60688842DBD80E
:1011C000D5F81C0840F00110C5F81C08206B60B170
:1011D000D5F8840840F00B00C5F88408D5F8440819
:1011E00040F00B00C5F844080CE0D5F8141842F2A2
:1011F0002B000143C5F81418D5F8100840F00B0077
:10120000C5F81008D5F8000820F4FE60C5F80008FD
:10121000217C2068009A03F093F82068416901F46A
:1012200080514161206803F06CFA800415D5206874
:1012300002F050FE206803F02BFAE06000F0C6FADE
:101240000146227B206803F0BFFA204600F00CF92B
:101250002068416901F400514161206803F051FAAE
:10126000000707D5204600F016F92068416901F013
:1012700008014161206803F044FAC00208D500214A
:10128000204600F035F82068416901F48011416181
:10129000206803F036FA800208D50021204600F0CD
:1012A0002BF82068416901F400114161206803F0C6
:1012B00028FA400007D52046FFF7D9FC206841698D
:1012C00001F080414161206803F01BFA40070AD514
:1012D00020684568680702D52046FFF7DFFC2068D4
:1012E000416829434160BDE8FC9F00000A30544F2B
:1012F000D0F8040402F0E8BAD0F8040402F0F4BA1A
:101300002DE9F0418AB0040005D094F8BD032668A9
:10131000002520B108E001200AB0BDE8F08184F882
:10132000BC53204600F05EF8032084F8BD03F06B48
:10133000C00500D42561206802F070FF04F110019F
:10134000282288466846FFF76FF994E80F0002F0FC
:10135000CFFD0226C8BB0021206803F0F5F900206C
:1013600001270EE0C0EBC00104EB810181F83D7064
:1013700001F83C0FC880CD708D60CD60401CC0B2BC
:101380004D6161688142EDD8002011E0C0EBC001E1
:1013900004EB810181F8FD5181F8FC0181F8FF51D6
:1013A000C1F80452C1F80852401CC0B2C1F8105232
:1013B00061688142EAD8282241466846FFF734F93D
:1013C00094E80F0002F070FE10B184F8BD63A2E74C
:1013D00084F8385084F8BD73206802F057FE00206E
:1013E0009AE7000010B586B0044614216846FFF75E
:1013F0004DF92068B0F1A04F2FD1194800210268A3
:1014000042F001020260006800F0010005904FF414
:10141000C05000900220CDE90101032003900A2072
:10142000049069460F48FFF761FA0D48001D0168F6
:1014300041F0800101600A481430016841F48041A4
:1014400001600068002200F48040059011464320AE
:10145000FFF7B4FB4320FFF7A3FB06B010BD00006D
:10146000303802400000024070B50446C0680125D3
:10147000022801D0FFF725FA2946D4F8040402F027
:101480009FFAD4F80404BDE8704002F052BAD0F8D4
:10149000040402F07BBAD0F8040402F081BA10B55B
:1014A000044690F8BC0301280BD0012084F8BC034B
:1014B00084F83810206803F075F9002084F8BC0324
:1014C00010BD022010BDD0F8042400F57171104643
:1014D00002F082BA10B50446006894F8BC130129E2
:1014E00006D0012184F8BC13A16A012902D008E0CA
:1014F000022010BDA169012903D0816B41F4803124
:101500008163206803F094F8206802F0B1FD0020A8
:1015100084F8BC0310BD000010B50446D0F80404E4
:1015200002F09CFA2068D0F8001E41F00101C0F8DA
:10153000001E206A002804D00248016841F006011C
:10154000016010BD10ED00E02DE9F843044600688D
:101550004FF00109C1074FF0000601D1400727D520
:10156000DFF81C81C8F86860FFF7BAFA0746454DF6
:1015700005E000BFFFF7B4FAC01B022857D828685F
:101580000001F7D460688101207A41EA00703D498A
:1015900084310860C8F86890FFF7A2FA074604E0B3
:1015A000FFF79EFAC01B022841D828680001F7D532
:1015B0002078800752D533484030016841F080518F
:1015C00001600068304D00F080500090286840F4C1
:1015D00080702860FFF784FA074604E0FFF780FA7E
:1015E000C01B022823D82868C005F7D5254D7035C3
:1015F000286810F4407020D0A18901F44071814224
:101600001BD0286820F440712048C0F80090066084
:1016100029602868C00710D0FFF762FA064641F239
:10162000883707E0FFF75CFA801BB84202D9032035
:10163000BDE8F88328688007F4D5E1681148C1F354
:1016400001220830032A12D0016821F4F811016048
:101650002868A189C1F30B0108432860207800079E
:1016600003D50B49207CC1F8E0010020E0E70268C7
:10167000084B22F4F81219400A430260E8E7000020
:10168000000047420038024000700040400E4742D0
:1016900000104742FFFCFF0F2DE9F0470E46050002
:1016A00065D0DFF81481D8F80000F7B200F0070029
:1016B000B04207D288F80070D8F8000000F00700A8
:1016C000B04254D128683D4C810712D5400703D55C
:1016D000206840F4E05020602878000703D5206897
:1016E00040F4604020602068A96820F0F0000843C2
:1016F00020602878C0072DD0304968680839012853
:1017000012D0022813D0032811D0096889070029B4
:101710002DDA216821F0030101432160FFF7E0F990
:10172000814641F2883A0EE009688903EFE70968CB
:101730008901ECE7FFF7D4F9A0EB0901514502D983
:101740000320BDE8F0872068696800F00C00B0EB6A
:10175000810FEFD1D8F80010404601F00701B142E7
:1017600007D90770006800F00700B04201D00120DF
:10177000E7E72878400705D52068E96820F4E050BD
:10178000084320602878000706D52068296920F4DE
:10179000604040EAC100206000F01EF82168084A5D
:1017A000C1F30311515CC84006490860064800684F
:1017B000FFF7BEF90020C4E7003C024008380240B1
:1017C0000690000890000020880000200148006872
:1017D0007047000090000020154810B5006810F018
:1017E0000C02144813D01449042A0FD0082A0ED131
:1017F0000F4C241F2268236802F03F025B0207D5CA
:101800002068C0F38810A0FB010106E0084610BD67
:101810002168C1F38811A1FB00010023FEF74EFDF2
:101820002168C1F30141491C4900B0FBF1F010BD32
:10183000083802400024F40040787D012DE9F84F7B
:1018400004006ED02078DFF84C93C007A9F104059E
:101850004AD009F104000168C1F38101012908D0CF
:101860000068C0F3810002280AD1D9F800004002C4
:1018700006D52868800337D560680028E1D033E0BA
:101880006068B0F5803F10D0B0F5A02F286810D068
:1018900020F480302860286820F480202860606868
:1018A000A8B1FFF71DF906460DE0286840F4803026
:1018B000F4E740F480202860F7E700BFFFF710F955
:1018C000801B642873D828688003F7D50CE0FFF7E5
:1018D00007F9064605E000BFFFF702F9801B642800
:1018E000F0D828688003F7D42078DFF8AC8280072E
:1018F0004FF0000A3ED5A748001D016811F00C0FFB
:1019000008D00068C0F3810002280BD1D9F800008C
:10191000400207D42868800716D5E068012800D166
:1019200012E033E1E068B8B10120C8F80000FFF729
:10193000D7F8064605E000BFFFF7D2F8801B022863
:10194000C0D828688007F7D52868216920F0F800FA
:1019500040EAC10028600DE0C8F800A0FFF7C0F819
:10196000064604E0FFF7BCF8801B02281FD8286851
:101970008007F7D42078000722D5864F8748616911
:10198000703771B101210160FFF7AAF8064604E043
:10199000FFF7A6F8801B022809D838688007F7D51A
:1019A0000EE0C0F800A0FFF79BF8064605E082E0D5
:1019B000FFF796F8801B02287DD838688007F7D497
:1019C0002078400768D5DFF8CCB100270BF13C0B3D
:1019D000DBF80000C0000BD4DBF8001041F08051B0
:1019E000CBF80010DBF80000012700F080500090D9
:1019F0006B4E3068C00510D4306840F480703060A1
:101A0000FFF76EF8009005E0FFF76AF80099401ABA
:101A1000022850D83068C005F6D55E4EA0686C36F6
:101A200001280FD00528306810D020F00100306068
:101A3000306820F004003060A068B8B1FFF750F8BB
:101A400000900FE0306840F00100F4E740F004003F
:101A50003060F7E7FFF744F80099411A41F2883007
:101A6000814266D830688007F4D50EE0FFF738F879
:101A7000009007E0FFF734F80099411A41F28830EE
:101A8000814256D830688007F4D42FB1DBF80010BB
:101A900021F08051CBF80010A069C8B33D49091D61
:101AA0000968C1F3810102294AD00228504607D0B3
:101AB000C8F8600000E03CE0FFF712F804463BE0A5
:101AC0004746C8F86000FFF70BF8064605E000BF80
:101AD000FFF706F8801B02282BD828688001F7D46E
:101AE000D4E907010843A16A2E4A490802EB0141E3
:101AF000626A41EA8211084394F82C1040EA0161BD
:101B0000C9F8001001203866FEF7EAFF044606E037
:101B10003EE000BFFEF7E4FF001B022809D828685A
:101B20008001F7D534E000BFFEF7DAFF001B022882
:101B300002D90320BDE8F88F28688001F4D427E09B
:101B40000128F7D0D9F80000E26900F48001914241
:101B50001CD1226A00F03F01914217D147F6C071B3
:101B6000626A0140B1EB821F10D1A26A4FF0FF33CD
:101B700000F4403103EB5202B1EB024F06D194F86E
:101B80002C1000F07060B0EB016F01D00120D1E7A4
:101B90000020CFE70438024000004742800E474251
:101BA000007000400000FFFF10B500680B46416860
:101BB0000D480140080CD870C1F304245C7001F09A
:101BC0003F049C70C1F34231197052B901F004F91D
:101BD000D870587801F000F95870987801F0FCF846
:101BE0009870002010BD00003FFFFF0010B50B46AD
:101BF0000168896A596001680969C1F30E01996039
:101C0000006801680E480140C1F305401870C1F337
:101C100006245C7001F07F049C70402404EA1141AA
:101C2000D97052B901F0D8F81870587801F0D4F88A
:101C30005870987801F0D0F89870002010BD00001E
:101C40007F7F7F0070B5040002D0607F10B106E096
:101C5000012070BD00202077204600F049F80220C6
:101C600060772168CA204862216853204862204674
:101C700001F0C6F8FF25042618BB206881681B4ABE
:101C8000114081602168886862681043D4E90423A8
:101C90001A43104388602168E06808612068016980
:101CA000228941EA024101612068C16821F0800176
:101CB000C16020688068800607D4204600F010F9D3
:101CC00018B1206845626677C2E72068016C21F48C
:101CD000802101642068016CA269114301642068BD
:101CE000456201206077002070BD0000BFFF8FFFBC
:101CF00010B586B0044614216846FEF7C7FC0949B2
:101D0000206888420CD102200090C00103906846F0
:101D1000FFF71AFC08B1FEF7D4FD03490120086063
:101D200006B010BD002800403C0E47422DE9F047A8
:101D30000446007F0B4601281FD04FF0010984F8AC
:101D40001C9002206077DAB19878D97840EA014592
:101D500058781978000240EA413005432168CA20CA
:101D60004862216853204862204601F049F8002665
:101D7000FF274FF0040860BB1AE00220BDE8F0879F
:101D80005878C10603D500F0EF000A305870D878B3
:101D900001F02BF80204587801F027F842EA0022FB
:101DA000987801F022F80243187842EA4035D5E7E6
:101DB0000F480540206845602068C16821F0800117
:101DC000C1602068806880060AD4204600F088F848
:101DD00030B12068476284F81D8026770120CDE766
:101DE0002068476284F81D9026770020C6E700002F
:101DF0003FFFFF002DE9F0470446007F0D46012814
:101E000027D04FF0010A84F81CA0022060772068D8
:101E1000002680684FEA4060F2B1002800DBEE70D7
:101E2000A878297840EA01476878E978000240EA12
:101E3000014007432168CA20486221685320486254
:101E4000204600F0DDFF4FF0FF084FF00409A0BB73
:101E500016E00220BDE8F087002800DBEE7028784D
:101E600000F0C3FF0204687800F0BFFF42EA0022DE
:101E7000A87800F0BAFF0243E87842EA0047D9E7C1
:101E800016480740206807602068816821F4802197
:101E90008160D5E90301084321688A68104388609E
:101EA0002068C16821F08001C160206880688006D8
:101EB0000BD4204600F014F838B12168C1F8248012
:101EC00084F81D9026770120C4E72168C1F824809A
:101ED00084F81DA026770020BCE700007F7F7F00EC
:101EE00070B504460068C16821F0A001C160FEF72A
:101EF000F7FD05464FF47A7607E000BFFEF7F0FDE8
:101F0000401BB04201D9032070BD2068C068800624
:101F1000F4D5002070BD10B5401EB0F1807F01D314
:101F2000012010BD4FF0E02460610F21601702F026
:101F3000D4FC0020A06107202061002010BD704764
:101F40007047000070B590F83C20012A2CD0012485
:101F500080F83C40022280F83D2003685A689D6862
:101F600022F070060A6832435A60104B02689A42A7
:101F70000ED0B2F1804F0BD00D4B9A4208D00D4BD2
:101F80009A4205D00C4B9A4202D00C4B9A4204D193
:101F9000496825F080031943916080F83D40002195
:101FA00080F83C10084670BD022070BD0000014062
:101FB0000004004000080040000C004000400140C8
:101FC00010B5040003D094F83D0010B107E00120E3
:101FD00010BD002084F83C00204600F01FF80220CD
:101FE00084F83D00211D206800F08CFF012084F85A
:101FF000460084F83E0084F83F0084F8400084F8EE
:10200000410084F8420084F8430084F8440084F8D6
:10201000450084F83D00002010BD000008B50068B0
:102020000B49884212D10B48016841F4003101602C
:102030000068002200F40030009011461920FEF7DD
:10204000BDFDBDE808401920FEF7AABD08BD00008F
:10205000004401404438024090F83D10012901D06D
:1020600001207047022180F83D100168CA6842F0E3
:102070000102CA6000680E4988420ED0B0F1804F5C
:102080000BD00C49884208D00B49884205D00B4937
:10209000884202D00A49884204D1816801F00701D0
:1020A000062903D0016841F001010160002070475A
:1020B000000001400004004000080040000C004007
:1020C00000400140704770B50446006801694FF058
:1020D0000005C943890715D4C168C943890711D4CC
:1020E000E91E016101202077206880698007204671
:1020F00002D0FFF7E7FF04E000F0C0F8204600F050
:1021000065F9257720680169C943490717D4C16873
:10211000C943490713D46FF00401016102202077FD
:102120002068806910F4407F204602D0FFF7CAFF84
:1021300004E000F0A3F8204600F048F92577206875
:102140000169C943090716D4C168C943090712D4F4
:102150006FF008010161042020772068C0698007C2
:10216000204602D0FFF7AEFF04E000F087F82046DB
:1021700000F02CF9257720680169C943C90617D4F6
:10218000C168C943C90613D46FF01001016108206A
:1021900020772068C06910F4407F204602D0FFF706
:1021A00091FF04E000F06AF8204600F00FF925776F
:1021B00020680169C943C90708D1C168C943C90773
:1021C00004D1891E0161204600F05AF92068016996
:1021D000C943090609D4C168C943090605D46FF08B
:1021E000800101612046FFF7AAFE20680169C9430A
:1021F000490609D4C168C943490605D46FF04001B6
:102200000161204600F0B6F920680169C9438906DA
:102210000BD4C168C943890607D46FF0200101615E
:102220002046BDE87040FFF78BBE70BD10B586B08C
:10223000044614216846FEF729FA0D4920688842B1
:1022400014D10C48016841F00201016000680121CD
:1022500000F002000590102000900220CDE902015C
:102260000190049069460448FEF740FB06B010BD9B
:10227000000400403038024000040240704770B54E
:10228000044690F83C0000260D4601280FD001209E
:1022900084F83C006AB1042A1DD0082A2FD00C2AE9
:1022A0003FD00126002084F83C00304670BD02205B
:1022B00070BD206800F080FE2068816941F008014F
:1022C00081612068816921F0040181612068816950
:1022D0002A69114311E0206800F096FE20688169A8
:1022E00041F4006181612068816921F4806181612C
:1022F000206881692A6941EA02218161D2E7206868
:1023000000F0AEFE2068C16941F00801C16120689B
:10231000C16921F00401C1612068C1692A691143C2
:1023200011E0206800F0C8FE2068C16941F4006136
:10233000C1612068C16921F48061C1612068C169FF
:102340002A6941EA0221C161ACE710B5040003D05B
:1023500094F83D0010B107E0012010BD002084F882
:102360003C00204600F01EF8022084F83D00211DAC
:10237000206800F0C7FD012084F8460084F83E0084
:1023800084F83F0084F8400084F8410084F842005B
:1023900084F8430084F8440084F8450084F83D0044
:1023A000002010BD08B500680649884208D10648DB
:1023B000016841F002010160006800F00200009035
:1023C00008BD000000040040403802407047000093
:1023D00010B50446022249B104290ED0082913D0B1
:1023E00094F84100012816D0012010BD94F83E0059
:1023F0000128F9D184F83E200FE094F83F0001282D
:10240000F2D184F83F2008E094F840000128EBD195
:1024100084F8402001E084F841200122206800F087
:10242000BDFD12492068884203D1426C42F400424B
:102430004264206888420ED0B0F1804F0BD00C4926
:10244000884208D00B49884205D00B49884202D007
:102450000A49884204D1816801F00701062903D0A6
:10246000016841F001010160002010BD0000014041
:102470000004004000080040000C00400040014003
:102480002DE9F0473749884269D1374CDFF8DC90B5
:102490004FF480416088401C60804846FEF716FB80
:1024A0004FF0010804F1100504F10807002640B9B7
:1024B0002888401C80B22880C82802D00A280ED064
:1024C00000E02E80388818B12088143020803E80AB
:1024D0004FF400414846FEF7F9FA18B10BE0A7F8AF
:1024E0000080F1E76888401C80B26880C82802D06C
:1024F0000A280ED000E06E80788818B12088143841
:1025000020807E8020884FF47A71884204D3218015
:1025100006E0A7F80280F1E7142801D814202080F3
:10252000104A2088483A126850636088884200D177
:10253000668060886421B0FBF1F201FB1200002884
:102540000DD10849002248310948FFF74FFBBDE88B
:10255000F04705490022091D0548FFF725BBBDE8E6
:10256000F08700001002002000000020000402405C
:10257000A80100207047FEE7F0B500230A243025AB
:1025800037261F4611E000BFB4EB107F02D905EBE0
:10259000107C01E006EB107C01F813C001EB430C4A
:1025A00000015B1C8CF80170DBB29342ECD3F0BDF0
:1025B0002DE9F04104461D4616460F462A2000F03C
:1025C000F1F9204600F0E1F9304600F0DEF92B2069
:1025D00000F0E8F9384600F0D8F9284600F0D5F9BF
:1025E000BDE8F0412C2000F0DDB910B514460B46D3
:1025F0000246FFF7DDFF2046BDE8104000F0C5B9F8
:102600002DE9F04780461F46581E83B21646501EDD
:1026100082B20C464046DDF82090FFF7C9FF0AE081
:10262000454604E0484600F0B0F96D1CADB2B54235
:10263000F8D3641CA4B2BC42F2D3BDE8F08700001A
:1026400001224FF478710148FEF745BA00040240B8
:1026500070B5FFF7F5FF664D4FF400740022214678
:102660002846FEF738FAC820FEF72EF90122214647
:102670002846FEF730FAC820FEF726F9C820FEF7F4
:1026800023F9112000F08EF9DC20FEF71DF9362029
:1026900000F088F9002000F099F93A2000F082F962
:1026A000052000F093F9B22000F07CF90C2000F036
:1026B0008DF90C2000F08AF9002000F087F9332012
:1026C00000F084F9332000F081F9B72000F06AF9B6
:1026D000352000F07BF9BB2000F064F9322000F0D7
:1026E00075F9C22000F05EF9012000F06FF9C320F7
:1026F00000F058F9152000F069F9C42000F052F9F3
:10270000202000F063F9C62000F04CF90F2000F003
:102710005DF9D02000F046F9A42000F057F9A1207F
:1027200000F054F9E02000F03DF9D02000F04EF91F
:10273000082000F04BF90E2000F048F9092000F0C5
:1027400045F9092000F042F9052000F03FF9312059
:1027500000F03CF9332000F039F9482000F036F958
:10276000172000F033F9142000F030F9152000F0A4
:102770002DF9312000F02AF9342000F027F9E1206A
:1027800000F010F9D02000F021F9082000F01EF927
:102790000E2000F01BF9092000F018F9092000F0C4
:1027A00015F9152000F012F9312000F00FF933204F
:1027B00000F00CF9482000F009F9172000F006F9A4
:1027C000142000F003F9152000F000F9312000F08A
:1027D000FDF8342000F0FAF8212000F0E3F8292079
:1027E00000F0E0F8BDE870406420FEF76DB800002E
:1027F000000402402DE9FF4F81B00446DDF83C9013
:1028000000904FEA59074FF00008780700D00120E8
:1028100000EBD70000FB09FB203AD0B203900298EE
:1028200002994844401E83B2E019401E82B22046FD
:10283000FFF7BEFE002553E0B9F10C0F2AD0B9F125
:10284000100F2ED0B9F1180F2ED0B9F1200F49D1A9
:102850002749039801EB8010002610F805A0109876
:1028600000284FF0010000FA06F000EA0A0022D02A
:1028700020B12046049A0299FFF7B7FE641C009825
:10288000A4B2201AB84225D10298009C401C80B204
:10289000029023E00398174900EB400001EB800011
:1028A000DAE71549039803E00398144900EB400068
:1028B00001EB0010D0E708B1049800E00E9800F09A
:1028C00064F808F10100C0B2B0FBF7F1804607FBE5
:1028D000118050B1761CF6B2082EC0D36D1CADB27B
:1028E0005D45A9D305B0BDE8F08F4FF00008F5E7CE
:1028F0009E6600086A4A0008DE4E0008CE540008B2
:102900002DE9F0471F469046CA19521E93B200EBBC
:102910000802521E002592B2DDF82090FFF748FE13
:10292000002611E000240BE019F8150000F037F83C
:1029300009EB4500407800F032F8641CA4B26D1C2D
:10294000BC42F1D3761CB6B24645EBD3BDE8F08766
:102950002DE9FE4F9946DDE90D6714468A46054686
:10296000DDF830800CE0CDF800804B46514628461B
:10297000CDE90167FFF73EFF05EB560085B2641C09
:102980002278002AEFD1BDE8FE8F10B50446000A78
:1029900000F01CF8E0B2BDE8104000F017B800F0FD
:1029A00015B8000070B5084C0546002220212046CD
:1029B000FEF791F8284600F009F82046BDE870407F
:1029C00001222021FEF787B8000402402DE9F041E2
:1029D000144E0546002240213046FEF77CF80024C4
:1029E000B715002280213046FEF775F8280601D57C
:1029F000012200E0002239463046FEF76CF8012241
:102A000080213046FEF767F86806641C050EE4B2C4
:102A1000082CE6D33046BDE8F04101224021FEF704
:102A20005AB8000000040240F0B587B0142168468F
:102A3000FDF72CFE26480025016841F004010160E5
:102A4000016801F004010591016841F08001016015
:102A5000016801F080010591016841F00201016007
:102A6000016801F002010591016841F00101016076
:102A70000068184F00F001004FF4806405900022B8
:102A800021463846FEF727F84FF478760122314682
:102A90003846FEF720F800940124CDE90145694647
:102AA00038460395FDF722FF4FF47040CDE900054D
:102AB000694602943846FDF719FF0220CDE902402D
:102AC000CDE9006469463846FDF710FF07B0F0BD58
:102AD000303802400004024010B586B01421684628
:102AE000FDF7D4FD1B48002419490594C0E90014E2
:102AF0007F218160FF21C0E9031444618461FFF7F5
:102B0000A1F808B1FDF7DDFE8DF800408DF8014019
:102B10008DF802400394012269460E480494FFF7A1
:102B200069F908B1FDF7CDFE01208DF814008DF88C
:102B300015008DF8160002468DF8174005A90548C6
:102B4000FFF7F4F8002801D0FDF7BBFE06B010BD7A
:102B500000280040A80100200C4810B50A49016077
:102B600053214160002140F2E732C0E902120161C5
:102B700080218161FFF724FA002803D0BDE81040CE
:102B8000FDF79FBE10BD0000004401401002002070
:102B900010B58AB0002407941C2168460894FDF7FC
:102BA00075FD1748154901601421C0E9011440F270
:102BB000E731C0E9031480218161FFF7C6FB08B14A
:102BC000FDF77FFE079407A90D480894FFF7BAF9AF
:102BD00008B1FDF776FE6020CDE9000402940022E2
:102BE000694607480494FFF74AFB08B1FDF769FE00
:102BF0000348FFF71BFB0AB010BD000000040040B3
:102C0000C801002010B500220F49104800F05BFDFC
:102C100008B1FDF756FE0E490C4800F047FF08B119
:102C2000FDF74FFE0B49094800F067FB08B1FDF7BF
:102C300048FE064800F0B4FF002803D0BDE810406D
:102C4000FDF73FBE10BD000018000020A0020020CC
:102C50007001002070000020FEE7FEE70148FEF74B
:102C60002DB90000601100202DE9F04103680D46E8
:102C700004461E6C03EB4511D1F8080BD4F810E0A4
:102C80004FF400474FF0200C04F57172BEF1010FB4
:102C900009D0DFF898E0764539D1020432D500BF7B
:102CA000C1F8087B3FE0224B5FEA007E04D59E42DC
:102CB00039D90004F4D436E05FEA806E02D5C1F859
:102CC00008CB30E010F0280F2DD19E4201D900042E
:102CD000E6D4C5EBC50004EB8000D1F8101BD0F89A
:102CE0000432C1F31201591AC0F81412D0F80812B4
:102CF0001944C0F8081295B9D4F8100278B9012126
:102D000020680AE080060AD5C1F808CB07E035B98B
:102D1000D4F8100218B90021184601F011FBE9B2ED
:102D20002046FDF7B1FF0020BDE8F0810A31544F85
:102D30000A30544F2DE9F84F0E46C1EBC60100EBA7
:102D4000810481460568D4E914103C34884202D9D4
:102D50000120BDE8F88F081AA168814200D2084618
:102D6000C01C870805EB46181BE000BFA0EB010A5A
:102D7000A068504500D282460AF10300870899F8FE
:102D8000100000901FFA8AF3F2B22846E16801F0C1
:102D90008FFDE16801EB0A00E060A16901EB0A0028
:102DA000A061D8F8180980B2B84205D3D4E905016A
:102DB000814201D20028D9D1D4E90501884208D83E
:102DC00006F00F0101208840D5F834188143C5F87A
:102DD00034180020BDE77047010901EB810100F0C4
:102DE0000F0000EB4100C0B27047002102E00A383A
:102DF000C0B2491C0A28FAD2090740EA116070479C
:102E000070B504460068C168490614D44FF0FF311C
:102E1000C160FDF765FE05464FF47A7607E000BF16
:102E2000FDF75EFE401BB04201D9032070BD206853
:102E3000C0684006F4D5002070BD70470178407826
:102E400041EA00207047FDF751BE000030B593B055
:102E500030216846FDF71AFC14210CA8FDF716FC7A
:102E60001F480025016841F080510160006800F0B2
:102E7000805011901B48016821F4404141F4004109
:102E800001600068022400F4404011900520009089
:102E90004FF480300190012002908005CDE906407A
:102EA000192008909020CDE9090403200B90684672
:102EB000FEF7C4FC08B172B6FEE70CA90F2081E84A
:102EC00031004FF48050CDE90F0502210CA8FEF728
:102ED000E3FB002801D072B6FEE713B030BD00005E
:102EE00040380240007000400248016841F470011F
:102EF0000160704788ED00E00148FFF7E4B800008A
:102F000010020020F0B502681D4B1E4C9F031E4DA1
:102F10001E4E984207D0B84205D0A04203D0A84226
:102F200001D0B04204D122F0700C4A6842EA0C028F
:102F3000984210D0B8420ED0A0420CD0A8420AD07D
:102F4000B04208D0124CA04205D0124CA04202D090
:102F5000114CA04203D122F44074CA6822434C6948
:102F600022F08002224302608A68C2620A6882629A
:102F7000984201D10969016301214161F0BD00005E
:102F8000000001400004004000080040000C004028
:102F900000400140004401400048014010B501F0EC
:102FA0001F030121046A99408C430462016A9A401C
:102FB0001143016210BD000030B5026A22F0010227
:102FC0000262026A4368846924F073050C682C432A
:102FD00022F002058A682A430A4DA8420BD122F04A
:102FE0000805CA6823F440732A434D6922F004029D
:102FF0001D438B692B4343608461496841630262CE
:1030000030BD00000000014030B5026A22F010021D
:103010000262026A436884690D6824F4E64444EA63
:1030200005248D6822F0200242EA05120B4DA842C9
:103030000ED1CD6822F0800242EA05124D6923F4D8
:10304000406343EA85038D6922F0400243EA850329
:103050004360846149688163026230BD00000140C1
:1030600030B5026A22F480720262036A4268C4695F
:1030700023F4007324F073050C682C438D6843EA35
:1030800005230C4DA8420ED1CD6823F4006343EA1A
:1030900005234D6922F4405242EA05128D6923F45A
:1030A000806342EA05124260C4614968C1630362F9
:1030B00030BD00000000014030B5026A22F48052A9
:1030C0000262046A4268C3690D6823F4E64343EA76
:1030D00005238D6824F4005444EA0534064DA842C3
:1030E00004D14D6922F4804242EA85124260C361F4
:1030F00049680164046230BD000001402DE9F041DF
:103100000C46D0F8C422D0F8BC12F9B104EB840309
:1031100000EB83050026AB694BB1C4EBC40702EB9F
:103120008702526CB3FBF2F702FB173282B1C1F88F
:103130001462D0F8C00203692BB1D1F8080222460C
:1031400001F5047198470020BDE8F0810320FBE7FA
:1031500000231A462146AE6100F089FCF3E770B502
:10316000D0F8BC4205466CB100F06AFBC4F80C0212
:10317000D5F8C012D4F80402CA6804F50371904768
:10318000002070BD032070BD70B50446812100F0A1
:10319000B6FA002525870121204600F0B0FAA4F8F0
:1031A00078518221204600F0AAFAA4F84C50A4F8E5
:1031B0004E50D4F8BC0248B1D4F8C00204F52F74C4
:1031C00040688047206800F040FE2560002070BD08
:1031D00010B5D0F8BC4284B1D0F8C01259B194F8FF
:1031E0000002FF2807D08B6894F8012221469847F7
:1031F000FF2084F80002002010BD032010BD000055
:103200000A21018000487047980000204321018076
:1032100000487047E80000204321018000487047C3
:10322000A400002043210180004870472C010020A9
:103230002DE9F04704464FF4077000F007FE050043
:103240004FF0000735D0C4F8BC52207C4FF0100876
:103250004FF40079012680B34023022281212046C9
:1032600000F052FB2687402302220121204600F075
:103270004BFBA4F87861A4F84E8008230322822136
:10328000204600F041FBA4F84C60D4F8C00200686E
:103290008047C5F81472C5F81872207CD5F804224E
:1032A000A8B140230121204600F03AFB0020BDE8F0
:1032B000F0870220C4F8BC72F9E7FFE74B46022210
:1032C0008121204600F020FB26874B46CCE74B4669
:1032D000E8E710B5D0F8BC1251B1027C002AD1F851
:1032E000042207D04023012100F01AFB002010BD6A
:1032F000032010BD4FF40073F5E719B1C0F8C012F8
:103300000020704703207047D0F8BC0218B1C0F805
:1033100004120020704703207047D0F8BC0228B187
:10332000C0F81022C0F80812002070470320704730
:103330002DE9FC410646D0F8BC7200200C468DF801
:103340000000ADF80400054637B1207810F06001A8
:1033500028D0202944D102E00320BDE8FC81E28886
:10336000C2B1000660780AD5D6F8C0128B6839461B
:103370009847E288072A00D90722394628E087F8CB
:103380000002A07987F80102E2883946304600F051
:1033900051F82AE0D6F8C012607800228B682146E6
:1033A000984722E0607830B101281ED00A2809D061
:1033B0000B2815D110E096F89C02032810D10222A8
:1033C00001A905E096F89C02032809D1012269466B
:1033D000304600F049F808E096F89C02032804D033
:1033E0002146304600F01BF803252846B5E710B506
:1033F000D0F8B8220AB152689047002010BD134699
:1034000010B50A46002100F08BFA002010BD1346CB
:1034100010B50A46002100F02AFB002010BD10B5AF
:103420000446802100F008FB2046BDE81040002142
:1034300000F002BB10B50323C0F89432C0F8582145
:103440001346C0F85C210A46002100F069FA00200A
:1034500010BD10B50521C0F8941200231A46194674
:1034600000F05EFA002010BD10B50223C0F89432BF
:1034700082611346C2610A46002100F0F8FA00207A
:1034800010BD10B50421C0F8941200231A46194645
:1034900000F0EDFA002010BD10B50A46024903A065
:1034A00000F0E1F8004810BD7005002043444320BF
:1034B000436F6E66696700001220088000487047FD
:1034C0003800002010B50A46024903A000F0CBF8EE
:1034D000004810BD7005002043444320496E7465C8
:1034E0007266616365000000042008800048704730
:1034F0003400002010B50A46024903A000F0B3F8DA
:10350000004810BD7005002053544D6963726F650B
:103510006C656374726F6E696373000010B50A4660
:10352000024903A000F09FF8004810BD700500207C
:1035300053544D3332205669727475616C20436F59
:103540006D506F727400000010B51A2008800A4890
:103550000168001D0468001D0068081809D00822D1
:103560000649FFF709F80549042210312046FFF704
:1035700003F80248801E10BD107AFF1F4E00002085
:10358000F8B504460020ADF8000048880D46010A51
:1035900008295FD2DFE801F05E0409175E5E3C4552
:1035A000D4F8B412207C0A6819E0207C0226002896
:1035B000D4F8B80205D0C16A68468847014646700B
:1035C00039E0816AF8E7C0B2062843D2DFE800F0AC
:1035D000030A1014181CD4F8B402426805E06946C6
:1035E00090471CE0D4F8B402826892B3207CF6E7DE
:1035F000D4F8B402C268F8E7D4F8B4020269F4E778
:10360000D4F8B4024269F0E7D4F8B4028269ECE776
:10361000207CF0B9D4F8B802416B6846884701466F
:1036200009E0207CA8B9D4F8B802016B6846884745
:10363000014607204870EA888AB1BDF8000040B111
:10364000824200D90246ADF800202046FFF70CFF69
:10365000F8BDFFE729462046FFF7E1FEF8E72046E0
:10366000FFF70FFFF4E770B5002300281ED00025F8
:10367000044602E06D1CEDB2641C2678002EF9D1E0
:10368000022404EB450414801278CA545B1C032204
:10369000CA5400245B1C06E0CA545B1CDAB28C548A
:1036A000521CD3B2401C0278002AF5D170BD010033
:1036B0004FF0000004D0012901D0022901D00320DD
:1036C00070470120704778B10023C0F8B832C0F8C5
:1036D000C032C0F8CC3209B1C0F8B412012180F870
:1036E0009C12027000F0B0B80320704710B5D0F8FB
:1036F000C402FDF7FDFABDE81040FFF7D8BF10B5D2
:10370000D0F8C402FDF7CEFABDE81040FFF7CFBFF6
:1037100070B51646044621B194F89C02032841D0A6
:1037200048E0D4F8941204F114000025022932D1A3
:10373000D0E902318B4206D95A1A826031462046BE
:10374000FFF765FE0FE0994214D14068884211D31B
:10375000D4F8981288420DD2002211462046FFF775
:1037600056FEC4F8985200231A461946204600F027
:10377000D7F810E094F89C02032805D1D4F8B802D9
:10378000C16809B1204688478021204600F054F9DD
:103790002046FFF75EFE94F8A00201280AD184F8C3
:1037A000A05207E0D4F8B80242691AB12046904707
:1037B000002800D1002070BD10B51346044621B189
:1037C00094F89C02032823D02AE0D4F8941204F53C
:1037D000AA70032924D1D0E9021291420AD98A1A87
:1037E0008260C068824200D3024619462046FFF735
:1037F00006FE15E094F89C02032805D1D4F8B8021F
:10380000016909B1204688472046FFF73AFE07E0E4
:10381000D4F8B80282691AB120469047002800D136
:10382000002010BD0020704710B5012180F89C12C7
:10383000D0F8B82212B1526801799047002010BD2B
:10384000D0F8C402FDF782BA10B5017839BB15492A
:103850000222C1F80404C0F8C4124FF0A04008606E
:10386000042048600020C1E90320C1E90620086265
:103870004862C86208630846FDF742FD08B1FDF7DB
:1038800020F880210748FDF7CCF9402200210548A7
:10389000FDF7CBF9802201210248FDF7C6F900208F
:1038A00010BD0000601100200A0601F07F01D0F871
:1038B000C402C1EBC10100EB810002D590F83E00CB
:1038C000704790F8FE01704710B5D0F8B82222B1C9
:1038D00090F89C32032B02D004E0032010BD126A42
:1038E00002B19047002010BD10B5D0F8B82222B127
:1038F00090F89C32032B02D004E0032010BD526AE2
:1039000002B19047002010BD10B51C461346D0F8F8
:10391000C4022246FDF723FABDE81040FFF7C7BEF8
:1039200010B5D0F8C402FDF74AFABDE81040FFF721
:10393000BEBE70B50125044680F89C520020C4F834
:1039400094026060C4F8A402D4F8B802E0B1D4F8DC
:10395000BC1221B1426812B10021204690470022DA
:10396000402311462046FFF7CFFF4026A4F86451BC
:103970003346002280212046C4F86061FFF7C4FF6F
:10398000A5840020266270BD032070BD90F89C12B3
:10399000042903D190F89D1280F89C1200207047F2
:1039A00010B5D0F8B81221B190F89C22032A02D0A9
:1039B00004E0032010BDC96901B18847002010BD93
:1039C00001740020704710B5D0F8C402FDF767FD00
:1039D000BDE81040FFF76BBE70B5044600F2AA20A8
:1039E000054600F04DF80120C4F89402B4F8B00286
:1039F000C4F8980294F8AA0210F01F010AD0012915
:103A00000ED0022912D000F080012046BDE870409F
:103A100000F012B829462046BDE8704000F0C2B858
:103A200029462046BDE8704000F0E6B92946204608
:103A3000BDE8704000F040B910B5D0F8C402FDF701
:103A4000E2F9BDE81040FFF732BE10B5D0F8C4026D
:103A5000FDF740FDBDE81040FFF729BE90F89C122D
:103A600080F89D12042180F89C120020704710B548
:103A7000D0F8C402FDF701FABDE81040FFF717BE09
:103A800070B5054611F8010B2870087868704C1C59
:103A90002046FFF7D3F96880A41C2046FFF7CEF933
:103AA000A880A01CFFF7CAF9E88070BD38B50446AD
:103AB0000020ADF8000049B1C4F8B812C96A19B1C4
:103AC00068468847C4F8CC02002038BD032038BDC2
:103AD00002460320D2F8B832002B02D01B681046F1
:103AE000184770472DE9F0410F462C4E8978002584
:103AF00004463170012906D939462046FFF78FFC6C
:103B00000320BDE8F08194F89C0202280CD0032821
:103B10001DD039462046FFF782FC31782046FFF75A
:103B200066FC03252846ECE799B320466160FFF761
:103B3000CFFF050004D039462046FFF770FCF1E7BF
:103B40002046FFF79EFC032084F89C02EAE74FF032
:103B50000208C1B1606888421BD0C1B22046FFF79D
:103B600046FC317820466160FFF7B2FF050010D0B7
:103B700039462046FFF753FC21792046FFF737FCF2
:103B800084F89C82CEE784F89C8220466160FFF72F
:103B90002EFC2046FFF775FCC4E7000094000020CF
:103BA000FFF753BF2DE9F0410A78002512F06002BB
:103BB00008D0202A01D0402A71D1D0F8B8229268CA
:103BC000904731E04B78002201260A2B67D2DFE8CC
:103BD00003F0415E6658660805662D29FFF7D0FCA4
:103BE0005FE004468888D8B9C888C8B94888802862
:103BF00016D200F07F0794F89C02032810D084F8B6
:103C00009E7239462046FFF7DEFE2046FFF739FC5C
:103C10001FB1022084F89C0243E084F89C6240E0DB
:103C200020463CE0FFF75EFF05463AE0CB88012BDB
:103C300035D190F89C32012B04D0022B02D0032BFB
:103C40002DD104E08260012200F1080116E001227A
:103C5000011D13E090F89C22012A03D0022A01D012
:103C6000032A1CD1CA88022A19D1C660D0F8A4122E
:103C700009B10321C160022200F10C01FFF7F4FB3E
:103C80000FE0498801290CD1C0F8A46211E090F836
:103C90009C32012B08D0022B06D0032B04D0FFF757
:103CA000BEFB2846BDE8F08149880129F9D1C0F85A
:103CB000A422FFF7E6FBF4E72DE9F0410D460446A8
:103CC00028780026097910F060000BD0202801D058
:103CD00040286DD1D4F8B802294682682046904722
:103CE000064686E06878A8B3012822D003287CD154
:103CF00094F89C02022802D0032876D10BE0002918
:103D000073D0802971D02046FFF796FE802120468F
:103D1000FFF792FE6DE0688838B931B1802904D090
:103D2000E88810B92046FFF787FE2046FFF7A9FB79
:103D30005FE094F89C020228E1D0032855D16888FE
:103D4000A8BB480602D02046FFF7D0FC2046FFF76C
:103D500098FBBFE7FFE794F89C020027022802D0F7
:103D6000032842D111E009B180293ED1080601F0B3
:103D70007F0000EB800004EB800101D5143101E0ED
:103D800001F5AA7102220F602BE0080601F00F0076
:103D900000EB800004EB80000BD5808C40B101F07B
:103DA0007F0000EB800004EB800514350CE020E080
:103DB0001BE0B0F86401C0B101F07F0000EB8000AF
:103DC00004EB800505F5AA7541B1802906D020468F
:103DD000FFF76AFD10B10120286000E02F60022289
:103DE00029462046FFF740FB03E029462046FFF71F
:103DF00016FB3046BDE8F08170B506460878002411
:103E00000D4610F0600003D0202801D0402817D1C3
:103E100096F89C02012803D0022801D003280FD174
:103E2000287901280CD8D6F8B80282683046904725
:103E30000446E888204306D13046FFF722FB02E023
:103E40003046FFF7ECFA204670BD704700487047D7
:103E5000400F002070B50A78012302F00F054E785C
:103E6000AB401B4CD0F81C58012E17D045EA034339
:103E7000C0F81C3800EB4210D0F8002B12040BD411
:103E8000D0F8002B0B89C978C3F30A031A4344EA1C
:103E900081410A43C0F8002B002070BD9BB21D4336
:103EA000C0F81C5800EB4210D0F800391B04F3D4C2
:103EB000D0F800390D89C978C5F30A0589042B4368
:103EC00041EA82510B432343C0F80039E4E7000084
:103ED00000800010D0F800196FF30A01C0F8001933
:103EE000D0F8041841F48071C0F80418002070471D
:103EF00070B5044606990A9E049D0D98012916D0B6
:103F0000E06840F04000E060204600F02BF8A16B34
:103F10001EB321F48031A163012D07D1A16841F0C6
:103F20000601A160A16841F02001A16070BDA16BF4
:103F300021F48031A163E168094A1140E160E16840
:103F400021F44011E160012803D1E06840F48010C1
:103F5000E060204600F006F8DEE741F48031DAE761
:103F6000BFFFBDFF08B500220D490092009B5B1CFE
:103F700000938B420CD80369002BF7DA0092026998
:103F800042F001020261009A521C00928A4201D959
:103F9000032008BD0269D207F5D1002008BD00004A
:103FA000400D030030B54C780A78012300EB421233
:103FB000012C2CD0D2F8004B002C0BDAD2F8004B9D
:103FC00044F00064C2F8004BD2F8004B44F0804447
:103FD000C2F8004BD0F83C580C7804F00F0403FAF8
:103FE00004F425EA0444C0F83C48D0F81C48097899
:103FF00001F00F018B4024EA0341C0F81C18D2F8ED
:10400000000B19490840C2F8000B002030BDD2F85F
:104010000049002C0BDAD2F8004944F00064C2F8E1
:104020000049D2F8004944F08044C2F80049D0F871
:104030003C480D7805F00F0503FA05F5ADB2AC4329
:10404000C0F83C48D0F81C48097801F00F018B40BB
:1040500099B28C43C0F81C48D2F8000903490840C3
:10406000C2F80009D1E700000078F3EF007833ECE4
:10407000D0F8001E21F00301C0F8001ED0F804188B
:1040800021F00201C0F8041800207047D0F8001E8B
:1040900021F00301C0F8001ED0F8041841F002011D
:1040A000C0F80418002070472DE9F04F00250E4697
:1040B0000446DDF82CC0DDF824B0109F28462946C0
:1040C00004EB8002C2F80411401C0F28F8D32046EC
:1040D000C7B1806B20F40012A263A06B40F40022F1
:1040E000A26308468846C4F8000ED4F8001820469B
:1040F000C4F80018BCF1010F16D0D0F8001841F038
:10410000030116E0D0F8040840F00202C4F80428C5
:10411000A06B40F40012A263A06B20F40022A26303
:10412000A06B20F48022DBE7D0F800180BB141F03F
:104130000101C0F80018102100F094FA00B1012527
:10414000204600F07BFA00B101254046C4F81088F3
:10415000C4F81488C4F81C8800214FF000694FF09F
:10416000904A4FF67F3314E004EB4112D2F800C9B5
:10417000BCF1000F06DA11B1C2F800A904E0C4F8DE
:10418000009901E0C2F80009C2F81009C2F8083924
:10419000491C8E42E8D8002115E000BF04EB411213
:1041A000D2F800CBBCF1000F06DA11B1C2F800ABB7
:1041B00004E0C4F8009B01E0C2F8000BC2F8100B49
:1041C000C2F8083B491C8E42E8D8D4F8101821F4F4
:1041D0008072C4F81028A0616FF080406061BBF16C
:1041E000000F03D1A06940F01000A061A069094947
:1041F0000843A0610C9818B1A06940F00800A061C4
:10420000012F03D1A06904490843A0612846BDE8F5
:10421000F08F000000383C8004000040816821F0ED
:10422000010181600020704770B50D784E78434CD5
:10423000EBB200EB4313012E1FD0D3F8100B6FF33A
:104240001200C3F8100BD3F8100B2040C3F8100B6A
:10425000486908B188684861D3F8100B40F4002021
:10426000C3F8100BD3F8100B8C68C4F3120420436E
:10427000C3F8100B012A55D058E04E69002ED3F830
:10428000106932D06FF31206C3F81069D3F81069C1
:104290002640C3F810694E698C68A64200D94C616B
:1042A000D3F8104944F40024C3F81049D3F8104956
:1042B0004E69C6F312063443C3F81049012A22D0CE
:1042C00000EB4512D2F8003943F00443C2F800393C
:1042D0004A6932B3D0F83428097801F00F0301217C
:1042E00099400A43C0F8342826E02640C3F81069F4
:1042F000D3F8104944F40024C3F81049D3F8104906
:104300006FF31204D8E7096919B100EB4512C2F83E
:10431000141900EB4510D0F8001941F00441C0F821
:10432000001909E0C86808B1C3F8140BD3F8000BF2
:1043300040F00440C3F8000B002070BDFFFF07E011
:1043400010B5036C134CA34203D9D0F8003B002BEB
:104350001EDB0023C0F8103BD0F8103B43F40023D1
:10436000C0F8103BD0F8103B43F01803C0F8103BE6
:10437000D0F8103B43F0C043C0F8103B012907D1EF
:10438000C0F8142BD0F8001B41F08021C0F8001BAE
:10439000002010BD0A30544F4A780B78012A00EBF8
:1043A00043100BD0D0F8002B22F40012C0F8002BE1
:1043B000C978032914D0022912D017E0D0F80029B7
:1043C00022F40012C0F80029C978032901D002297B
:1043D0000CD1D0F8001941F08051C0F8001905E067
:1043E000D0F8001B41F08051C0F8001B002070473E
:1043F0000A784B78D1B200EB4110012B12D0D0F8E3
:10440000001B002906DB2AB1D0F8001B21F08041F7
:10441000C0F8001BD0F8001B41F40011C0F8001BCD
:1044200000207047D0F80019002906DB2AB1D0F827
:10443000001921F08041C0F80019D0F8001941F4AA
:104440000011C0F80019EBE7F8B50C784F78774DFC
:10445000E3B26FF0604600EB4313012F26D0D3F890
:10446000104B6FF31204C3F8104BD3F8104B2C40D1
:10447000C3F8104B4C69002C74D08D682C44641E1A
:10448000B4FBF5F4D3F8105BA4B206EAC446354396
:10449000C3F8105BD3F8105B8E686643C6F3120452
:1044A0002543C3F8105B012A71D0A6E04F691FB302
:1044B000D3F810796FF31207C3F81079D3F8107995
:1044C0002F40C3F810794F698D682F447F1EB7FBCA
:1044D000F5F506EAC545D3F810693543C3F8105918
:1044E000D3F810594E69C6F312063543C3F8105974
:1044F000CD78012D10D01BE0D3F810692E40C3F801
:104500001069D3F8105945F40025C3F81059D3F8B1
:1045100010596FF3120509E0D3F8105925F0C04582
:10452000C3F81059D3F8105945F00055C3F8105985
:10453000012A18D000EB4413D3F8004944F0044496
:10454000C3F80049CC78012C2FD04A6962B3D0F867
:104550003428097801F00F03012199400A43C0F87B
:10456000342860E036E00A691AB100EB4413C3F85E
:104570001429C97801290FD1D0F80818C90500EB12
:104580004411D1F8002903D442F0005202E030E097
:1045900042F08052C1F8002900EB4410D0F8001915
:1045A00041F00441C0F800193DE0D0F80848E405A6
:1045B000D3F8004902D444F0005401E044F08054A0
:1045C000C3F8004900928A8A93B20A78C96800F059
:1045D0006FF928E0D3F8104B8D68C5F312052C4312
:1045E000C3F8104BD3F8104B44F40024C3F8104B1D
:1045F00059E7CA680AB1C3F8142BC97801290CD14C
:10460000D0F80808C005D3F8000B02D440F00050E1
:1046100001E040F08050C3F8000BD3F8000B40F0ED
:104620000440C3F8000B0020F8BD0000FFFF07E0C6
:10463000816841F0010181600020704708B50021C8
:104640000091102101610649009A521C00928A4291
:1046500001D9032008BD0269D206F5D4002008BDA7
:10466000400D030008B500220092202242EA811189
:1046700001610649009A521C00928A4201D9032026
:1046800008BD02699206F5D4002008BD400D030064
:10469000D0F8080810F0060004D0022803D006283D
:1046A00001D00F20704702207047406900F00100E0
:1046B0007047D0F81818D0F81C08084080B270472E
:1046C000D0F81818D0F81C080840000C704710B536
:1046D000D0F81038D0F8342801F00F0400EB411066
:1046E000E24002F00102D0F8080943EAC212104089
:1046F00010BD00EB4111D1F8081BD0F81408084098
:104700007047416980690840704730B503460846E4
:10471000940802F00301002203F5805303E01D68B2
:1047200040F8045B521CA242F9D300290BD01C684C
:104730000022D50024FA05F3491E521C090400F892
:10474000013B090CF5D130BD70B50446C0680025A9
:1047500020F0C040E060012901D079B120E0E0689C
:1047600040F00050E0600120FCF7AEF860696D1C7D
:1047700010F0010F10D1322DF5D30DE0E06840F0BC
:104780008040E0600120FCF79FF860696D1C10F02C
:10479000010F01D0322DF5D3322D01D0002070BD94
:1047A000012070BDD0F8002822F4FE62C0F8002875
:1047B000D0F800284FF4FE6303EA01110A43C0F861
:1047C0000028002070470000022A3ED1264A274BCD
:1047D0000A449A4201D20F2138E0254A254B0A4467
:1047E0009A4201D20E2131E0234A244B0A449A42D4
:1047F00001D20D212AE0224A224B0A449A4201D2D8
:104800000C2123E0204A214B0A449A4201D20B2179
:104810001CE01F4A1F4B0A449A4201D20A2115E0AC
:104820001D4A1E4B0A449A420FD31D4A1D4B0A448F
:104830009A4201D2082109E01B4A11441B4A9142C5
:1048400001D2072102E0062100E00921C26822F41A
:104850007052C260C2684FF4705303EA81210A4368
:10486000C260002070470000405327FF00350C0055
:10487000401E1BFF40420F0000DC0BFF804F120068
:10488000808CF9FE20D6130060B6E5FE60E31600CA
:1048900000D3CEFE40771B00C05BB3FEC091210069
:1048A00000CA91FE20753800E05459FEE09C41009A
:1048B00010B5029C74B9DB1C9C0800EB023000238D
:1048C00000F5805004E000BF51F8042B02605B1C2F
:1048D000A342F9D3002010BDFEE70907090E002806
:1048E00004DB00F1E02080F80014704700F00F00B6
:1048F00000F1E02080F8141D704730380A2801D2FA
:1049000001207047002070470EB5FCF7F7F8FEF75E
:104910009DFA00F071F8FEF787F8FEF773F9FEF7DD
:10492000DBF8FEF735F9FEF717F92648FDF794FB9B
:1049300000212548FDF74CFDFDF78AFE4FF6FF7478
:10494000F02300211A4608460094FDF759FE1F483F
:10495000282300901A4664216120FDF7D1FF1A4AEE
:104960001B481268018851631A4D002680464FF09B
:1049700020094FF478474FF0180AA87800906B7818
:104980002A7815A11848FBF711FDCDE900493B46EF
:10499000154A282137200296FDF7DAFFB8F80020E3
:1049A00012A11148FBF702FDCDE9004A3B460E4A31
:1049B000962141200296FDF7CBFF6420FBF784FF90
:1049C000DBE7000010020020C801002086830008F9
:1049D0000000002058020020253032643A25303291
:1049E000643A2530326400006C0200204C6967682C
:1049F000743A25642020000070B5174886B0002561
:104A0000016841F0010101600068144E00F00100EE
:104A10004FF4805405902A4621463046FCF75BF857
:104A20000120CDE900400220CDE90205694630466B
:104A3000FBF75CFF002221463046FCF74CF8412092
:104A4000FBF742FF012221463046FCF744F84120A3
:104A5000FBF73AFF06B070BD30380240000002405C
:104A60004FF04070E1EE100A7047000000000000B7
:104A7000000000000000000004040404040000041E
:104A8000000014140A0000000000000000000000F4
:104A90000A0A1F0A0A1F0A0A000000040E1505066A
:104AA0000C14150E0400000012150D152E2C2A12E0
:104AB00000000000040A0A3615152916000002023B
:104AC00001000000000000000000100808040404B9
:104AD0000404080810000204040808080808040474
:104AE000020000000004150E0E1504000000000076
:104AF0000008083E08080000000000000000000058
:104B000000000202010000000000003F0000000061
:104B10000000000000000000000000020000002073
:104B20001010080804040202010000000E11111107
:104B30001111110E00000000040604040404040E08
:104B4000000000000E1111080402011F0000000007
:104B50000E11100C1010110E00000000080C0C0AB1
:104B6000091F081C000000001F01010F1110110E89
:104B7000000000000C12010D1311110E00000000C6
:104B80001E10080804040404000000000E11110E99
:104B90001111110E000000000E1111191610090656
:104BA00000000000000004000000000400000000FD
:104BB00000000004000000040400000010080402CB
:104BC000020408100000000000003F003F00000049
:104BD0000000000002040810100804020000000099
:104BE0000E11110804040004000000001C22292DED
:104BF0002D1D221C0000000004040C0A0A1E1233A2
:104C0000000000000F12120E1212120F000000001E
:104C10001E1101010101110E000000000F121212FD
:104C20001212120F000000001F120A0E0A02121FB9
:104C3000000000001F120A0E0A0202070000000016
:104C40001C1201013911120C000000003312121E57
:104C500012121233000000001F0404040404041F95
:104C6000000000003E0808080808080809070000BE
:104C700037120A060A121237000000000702020269
:104C80000202223F000000003B1B1B1B15151535BF
:104C9000000000003B1216161A1A1217000000003E
:104CA0000E1111111111110E000000000F12120E41
:104CB00002020207000000000E1111111117190E57
:104CC000180000000F12120E0A1212370000000026
:104CD0001E1101060810110F000000001F1504042A
:104CE0000404040E00000000331212121212120CFF
:104CF000000000003312120A0A0C04040000000035
:104D0000151515150E0A0A0A000000001B0A0A04F0
:104D1000040A0A1B000000001B0A0A0A0404040E0D
:104D2000000000001F0908040402121F00001C04F8
:104D300004040404040404041C0000020204040427
:104D40000808081010000E080808080808080808D5
:104D50000E00040A00000000000000000000000037
:104D60000000000000000000003F020400000000FE
:104D700000000000000000000000000C121C123CAB
:104D8000000000030202020E1212120E00000000C8
:104D90000000001C1202120C000000181010101C61
:104DA0001212123C000000000000000C121E021C37
:104DB000000000182404041E0404041E0000000067
:104DC0000000003C120C021C221C00030202020E16
:104DD0001212123700000004040000060404040E3E
:104DE000000000080800000C080808080807000375
:104DF0000202021A0A060A1300000007040404044F
:104E00000404041F000000000000000F1515151514
:104E1000000000000000000F121212370000000016
:104E20000000000C1212120C000000000000000F25
:104E30001212120E020700000000001C1212121CB7
:104E4000103800000000001B0602020700000000EE
:104E50000000001E020C101E000000000004041ED2
:104E60000404041C000000000000001B1212123C8D
:104E7000000000000000001B0A0A040400000000FB
:104E800000000015150E0A0A000000000000001BBB
:104E90000A040A1B000000000000003312120C0874
:104EA000040300000000001E0804041E000018088F
:104EB0000808080C08080808180008080808080866
:104EC0000808080808080604040404080404040484
:104ED00006001609000000000000000000000000AD
:104EE00000000000000000000000000000000000C2
:104EF0000008080808080808000018180000004802
:104F00006C241200000000000000000000000000FF
:104F1000002424247F1212127F12121200000000BB
:104F2000081C2A2A0A0C1828282A2A1C080800000B
:104F30000022251515152A5854545422000000004B
:104F4000000C1212120A76252911916E000000063B
:104F50000604030000000000000000000000004004
:104F6000201010080808080808101020400000024F
:104F700004080810101010101008080402000000A7
:104F8000000008086B1C1C6B0808000000000000F3
:104F90000000080808087F08080808000000000052
:104FA00000000000000000000000060604030000EE
:104FB000000000000000FE000000000000000000F3
:104FC00000000000000000000000060600000000D5
:104FD0008040402020101008080404020200000055
:104FE000001824424242424242422418000000007B
:104FF00000080E08080808080808083E000000001D
:10500000003C4242422020100804427E0000000082
:10501000003C4242201820404042221C0000000078
:1050200000203028242422227E2020780000000046
:10503000007E0202021A26404042221C00000000AC
:1050400000382402021A26424242241800000000BE
:10505000007E22221010080808080808000000003E
:10506000003C4242422418244242423C00000000DC
:1050700000182442424264584040241C00000000B2
:1050800000000000181800000000181800000000C0
:1050900000000000000800000000000808040000F4
:1050A0000040201008040204081020400000000006
:1050B000000000007F0000007F00000000000000F2
:1050C0000002040810204020100804020000000024
:1050D000003C42424640201010001818000000001A
:1050E000001C225A555555552D42221C0000000027
:1050F000000808181414243C224242E70000000073
:10510000001F2222221E22424242221F00000000D3
:10511000007C4242010101010142221C000000000A
:10512000001F2242424242424242221F000000002F
:10513000003F4212121E12120242423F00000000C3
:10514000003F4212121E121202020207000000006B
:10515000003C2222010101712122221C00000000DA
:1051600000E7424242427E42424242E700000000E3
:10517000003E0808080808080808083E000000006B
:10518000007C10101010101010101010110F0000E3
:10519000007722120A0E0A12122222770000000063
:1051A00000070202020202020202427F0000000027
:1051B0000077363636362A2A2A2A2A6B0000000063
:1051C00000E346464A4A52525262624700000000DB
:1051D000001C2241414141414141221C000000008C
:1051E000003F424242423E0202020207000000002B
:1051F000001C2241414141414D53321C60000000DE
:10520000003F4242423E1212222242C700000000EA
:10521000007C4242020418204042423E000000004E
:10522000007F4908080808080808081C000000005A
:1052300000E74242424242424242423C00000000F9
:1052400000E7424222242414141808080000000039
:10525000006B494949495555362222220000000079
:1052600000E7422424181818242442E70000000014
:1052700000772222141408080808081C0000000007
:10528000007E2120101008040442423F00000078F4
:105290000808080808080808080808087800000036
:1052A0000202040408080810102020204040001EBC
:1052B0001010101010101010101010101E000038D8
:1052C000440000000000000000000000000000009A
:1052D00000000000000000000000000000FF0006C9
:1052E00008000000000000000000000000000000B6
:1052F00000000000003C4278444242FC00000000F4
:1053000000030202021A26424242261A000000004E
:10531000000000000038440202024438000000008F
:105320000060404040784442424264D8000000009F
:1053300000000000003C427E0202423C00000000EF
:1053400000F08808087E08080808083E00000000F1
:1053500000000000007C22221C023C42423C000073
:1053600000030202023A4642424242E700000000C5
:10537000000C0C00000E08080808083E00000000A1
:10538000003030000038202020202020221E000085
:10539000000302020272120A1612227700000000B5
:1053A000000E0808080808080808083E0000000069
:1053B00000000000007F9292929292B700000000DD
:1053C00000000000003B4642424242E7000000006D
:1053D00000000000003C42424242423C000000000B
:1053E00000000000001B26424242221E020700006D
:1053F00000000000007844424242447840E000004F
:105400000000000000774C040404041F00000000AA
:1054100000000000007C42023C40423E00000000D0
:1054200000000008083E08080808083000000000D6
:105430000000000000634242424262DC00000000C3
:105440000000000000E742242414080800000000C7
:105450000000000000EB49495555222200000000E1
:1054600000000000007624181818246E00000000C8
:105470000000000000E74224241418080807000078
:1054800000000000007E22100808447E000000C0DA
:10549000202020202010202020202020C0001010BC
:1054A0001010101010101010101010101010000616
:1054B00008080808081008080808080806000C3240
:1054C000C20000000000000000000000000000001A
:1054D00000000000000000000000000000000000CC
:1054E00000000000000000000000000000000000BC
:1054F00000000000000000000000000000000000AC
:1055000000000000000060006000600060006000BB
:10551000600060004000200020002000000000002B
:10552000000060006000600000000000000000005B
:105530000000600660063003980188004400000007
:10554000000000000000000000000000000000005B
:10555000000000000000000000000000000000004B
:105560000000000000001002100210021002FE07EE
:10557000FE0708020801080108010801FE07FE07EE
:105580000401040104010401000000000000000007
:105590000000000040004000F00158034C03CC0321
:1055A0004C0058007000E000C001C00140034C03F3
:1055B0005C034C034801F000400040000000000084
:1055C0000000000000000E010A019100910091000E
:1055D000510051003A00AE03A002500450044804A8
:1055E0004804480484028403000000000000000016
:1055F00000000000000038006C006C006C006C00C3
:105600006C002C0098071C011A013301330163015F
:10561000E300C308C6093C070000000000000000CA
:1056200000000C001C001000100008000400000026
:10563000000000000000000000000000000000006A
:10564000000000000000000000000000000000005A
:1056500000000004000200018000800040004000C3
:10566000200020002000200020002000200040001A
:1056700040008000800000010002000400000000E3
:1056800000000200040008001000100020002000AC
:10569000400040004000400040004000400020002A
:1056A00020001000100008000400020000000000AC
:1056B000000000000000000000004000C0004000AA
:1056C000460C4E0FD001F0015E0F460C400040002A
:1056D000400000000000000000000000000000008A
:1056E000000000000000000000000000400040003A
:1056F000400040004000FE0F4000400040004000DD
:105700004000000000000000000000000000000059
:105710000000000000000000000000000000000089
:105720000000000000000000000000000000000079
:1057300000000C001C001000100008000400000015
:105740000000000000000000000000000000000059
:10575000000000000000FE07000000000000000044
:105760000000000000000000000000000000000039
:105770000000000000000000000000000000000029
:105780000000000000000000000000000000000019
:1057900000001C001C001C000000000000000000B5
:1057A0000000000400060002000300010001800068
:1057B0008000400040006000200020001000100029
:1057C000080008000C0004000600020000000000B1
:1057D0000000000000000000F00098010C030C0322
:1057E0000606060606060606060606060606060659
:1057F0000C030C039801F000000000000000000002
:10580000000000000000000040007C00600060001C
:105810006000600060006000600060006000600088
:10582000600060006000FC03000000000000000059
:105830000000000000000000F800840102030603DD
:105840000603000300018001C0006000200010007A
:10585000080204020602FE0300000000000000002F
:1058600000000000000000007800C60086018601EC
:1058700080018001C000700080010001000300036E
:10588000060306038601F800000000000000000087
:10589000000000000000000080018001C001A001A4
:1058A000A00190018801880184018201FE0F80011E
:1058B000800180018001E00700000000000000007E
:1058C0000000000000000000FC03040004000400CD
:1058D00004000400F4008C01040300030003060329
:1058E000060382018401F8000000000000000000AF
:1058F0000000000000000000E00118030C030C0091
:1059000004000600E60116030E0606060606060655
:1059100004060C021803F000000000000000000064
:105920000000000000000000F8070C06040204015B
:105930000001000180008000400040004000600045
:1059400060006000600060000000000000000000D7
:105950000000000000000000F8010C030606060627
:1059600006060C021C03F000C8010C03060606061E
:10597000060606060C03F00100000000000000000F
:105980000000000000000000F0000C010C03060203
:1059900006060606060606078C06780600060003BD
:1059A00000030C018C0178000000000000000000E2
:1059B00000000000000000000000000000000000E7
:1059C0000000E000E000E000000000000000000037
:1059D0000000E000E000E000000000000000000027
:1059E00000000000000000000000000000000000B7
:1059F00000006000600000000000000000000000E7
:105A00000000000060006000400020002000000056
:105A100000000000000000040002000180004000BF
:105A200020001000080004000800100020004000C2
:105A300080000001000200040000000000000000DF
:105A40000000000000000000000000000000000056
:105A50000000FE07000000000000FE07000000003C
:105A60000000000000000000000000000000000036
:105A700000000000000004000800100020004000AA
:105A800080000001000200040002000180004000CC
:105A900020001000080004000000000000000000CA
:105AA0000000000000000000E0031806040C040CD5
:105AB0000C0C0C0C0007800140004000400000006E
:105AC0000000E000E000E000000000000000000036
:105AD000000000000000E00018030C02CC05640583
